{
  "abi": [
    {
      "type": "constructor",
      "inputs": [
        {
          "name": "initialSupply",
          "type": "uint256",
          "internalType": "uint256"
        }
      ],
      "stateMutability": "nonpayable"
    },
    {
      "type": "function",
      "name": "allowance",
      "inputs": [
        {
          "name": "_owner",
          "type": "address",
          "internalType": "address"
        },
        {
          "name": "spender",
          "type": "address",
          "internalType": "address"
        }
      ],
      "outputs": [
        {
          "name": "",
          "type": "uint256",
          "internalType": "uint256"
        }
      ],
      "stateMutability": "view"
    },
    {
      "type": "function",
      "name": "approve",
      "inputs": [
        {
          "name": "spender",
          "type": "address",
          "internalType": "address"
        },
        {
          "name": "amount",
          "type": "uint256",
          "internalType": "uint256"
        }
      ],
      "outputs": [
        {
          "name": "",
          "type": "bool",
          "internalType": "bool"
        }
      ],
      "stateMutability": "nonpayable"
    },
    {
      "type": "function",
      "name": "balanceOf",
      "inputs": [
        {
          "name": "account",
          "type": "address",
          "internalType": "address"
        }
      ],
      "outputs": [
        {
          "name": "",
          "type": "uint256",
          "internalType": "uint256"
        }
      ],
      "stateMutability": "view"
    },
    {
      "type": "function",
      "name": "burn",
      "inputs": [
        {
          "name": "amount",
          "type": "uint256",
          "internalType": "uint256"
        }
      ],
      "outputs": [],
      "stateMutability": "nonpayable"
    },
    {
      "type": "function",
      "name": "decimals",
      "inputs": [],
      "outputs": [
        {
          "name": "",
          "type": "uint8",
          "internalType": "uint8"
        }
      ],
      "stateMutability": "view"
    },
    {
      "type": "function",
      "name": "decreaseAllowance",
      "inputs": [
        {
          "name": "spender",
          "type": "address",
          "internalType": "address"
        },
        {
          "name": "subtractedValue",
          "type": "uint256",
          "internalType": "uint256"
        }
      ],
      "outputs": [
        {
          "name": "",
          "type": "bool",
          "internalType": "bool"
        }
      ],
      "stateMutability": "nonpayable"
    },
    {
      "type": "function",
      "name": "increaseAllowance",
      "inputs": [
        {
          "name": "spender",
          "type": "address",
          "internalType": "address"
        },
        {
          "name": "addedValue",
          "type": "uint256",
          "internalType": "uint256"
        }
      ],
      "outputs": [
        {
          "name": "",
          "type": "bool",
          "internalType": "bool"
        }
      ],
      "stateMutability": "nonpayable"
    },
    {
      "type": "function",
      "name": "mint",
      "inputs": [
        {
          "name": "to",
          "type": "address",
          "internalType": "address"
        },
        {
          "name": "amount",
          "type": "uint256",
          "internalType": "uint256"
        }
      ],
      "outputs": [],
      "stateMutability": "nonpayable"
    },
    {
      "type": "function",
      "name": "name",
      "inputs": [],
      "outputs": [
        {
          "name": "",
          "type": "string",
          "internalType": "string"
        }
      ],
      "stateMutability": "view"
    },
    {
      "type": "function",
      "name": "owner",
      "inputs": [],
      "outputs": [
        {
          "name": "",
          "type": "address",
          "internalType": "address"
        }
      ],
      "stateMutability": "view"
    },
    {
      "type": "function",
      "name": "renounceOwnership",
      "inputs": [],
      "outputs": [],
      "stateMutability": "nonpayable"
    },
    {
      "type": "function",
      "name": "symbol",
      "inputs": [],
      "outputs": [
        {
          "name": "",
          "type": "string",
          "internalType": "string"
        }
      ],
      "stateMutability": "view"
    },
    {
      "type": "function",
      "name": "totalSupply",
      "inputs": [],
      "outputs": [
        {
          "name": "",
          "type": "uint256",
          "internalType": "uint256"
        }
      ],
      "stateMutability": "view"
    },
    {
      "type": "function",
      "name": "transfer",
      "inputs": [
        {
          "name": "recipient",
          "type": "address",
          "internalType": "address"
        },
        {
          "name": "amount",
          "type": "uint256",
          "internalType": "uint256"
        }
      ],
      "outputs": [
        {
          "name": "",
          "type": "bool",
          "internalType": "bool"
        }
      ],
      "stateMutability": "nonpayable"
    },
    {
      "type": "function",
      "name": "transferFrom",
      "inputs": [
        {
          "name": "sender",
          "type": "address",
          "internalType": "address"
        },
        {
          "name": "recipient",
          "type": "address",
          "internalType": "address"
        },
        {
          "name": "amount",
          "type": "uint256",
          "internalType": "uint256"
        }
      ],
      "outputs": [
        {
          "name": "",
          "type": "bool",
          "internalType": "bool"
        }
      ],
      "stateMutability": "nonpayable"
    },
    {
      "type": "event",
      "name": "Approval",
      "inputs": [
        {
          "name": "owner",
          "type": "address",
          "indexed": true,
          "internalType": "address"
        },
        {
          "name": "spender",
          "type": "address",
          "indexed": true,
          "internalType": "address"
        },
        {
          "name": "value",
          "type": "uint256",
          "indexed": false,
          "internalType": "uint256"
        }
      ],
      "anonymous": false
    },
    {
      "type": "event",
      "name": "Burned",
      "inputs": [
        {
          "name": "from",
          "type": "address",
          "indexed": true,
          "internalType": "address"
        },
        {
          "name": "amount",
          "type": "uint256",
          "indexed": false,
          "internalType": "uint256"
        }
      ],
      "anonymous": false
    },
    {
      "type": "event",
      "name": "Minted",
      "inputs": [
        {
          "name": "to",
          "type": "address",
          "indexed": true,
          "internalType": "address"
        },
        {
          "name": "amount",
          "type": "uint256",
          "indexed": false,
          "internalType": "uint256"
        }
      ],
      "anonymous": false
    },
    {
      "type": "event",
      "name": "OwnershipRenounced",
      "inputs": [
        {
          "name": "previousOwner",
          "type": "address",
          "indexed": true,
          "internalType": "address"
        }
      ],
      "anonymous": false
    },
    {
      "type": "event",
      "name": "Transfer",
      "inputs": [
        {
          "name": "from",
          "type": "address",
          "indexed": true,
          "internalType": "address"
        },
        {
          "name": "to",
          "type": "address",
          "indexed": true,
          "internalType": "address"
        },
        {
          "name": "value",
          "type": "uint256",
          "indexed": false,
          "internalType": "uint256"
        }
      ],
      "anonymous": false
    },
    {
      "type": "error",
      "name": "InsufficientAllowance",
      "inputs": []
    },
    {
      "type": "error",
      "name": "InsufficientBalance",
      "inputs": []
    },
    {
      "type": "error",
      "name": "OnlyOwner",
      "inputs": []
    },
    {
      "type": "error",
      "name": "ZeroAddress",
      "inputs": []
    }
  ],
  "bytecode": {
    "object": "0x608060405234801561000f575f5ffd5b506040516117503803806117508339818101604052810190610031919061026e565b3360035f6101000a81548173ffffffffffffffffffffffffffffffffffffffff021916908373ffffffffffffffffffffffffffffffffffffffff1602179055505f8111156100ab576100aa60035f9054906101000a900473ffffffffffffffffffffffffffffffffffffffff16826100b160201b60201c565b5b50610321565b5f73ffffffffffffffffffffffffffffffffffffffff168273ffffffffffffffffffffffffffffffffffffffff1603610116576040517fd92e233d00000000000000000000000000000000000000000000000000000000815260040160405180910390fd5b8060025f82825461012791906102c6565b92505081905550805f5f8473ffffffffffffffffffffffffffffffffffffffff1673ffffffffffffffffffffffffffffffffffffffff1681526020019081526020015f205f82825461017991906102c6565b925050819055508173ffffffffffffffffffffffffffffffffffffffff165f73ffffffffffffffffffffffffffffffffffffffff167fddf252ad1be2c89b69c2b068fc378daa952ba7f163c4a11628f55a4df523b3ef836040516101dd9190610308565b60405180910390a38173ffffffffffffffffffffffffffffffffffffffff167f30385c845b448a36257a6a1716e6ad2e1bc2cbe333cde1e69fe849ad6511adfe8260405161022b9190610308565b60405180910390a25050565b5f5ffd5b5f819050919050565b61024d8161023b565b8114610257575f5ffd5b50565b5f8151905061026881610244565b92915050565b5f6020828403121561028357610282610237565b5b5f6102908482850161025a565b91505092915050565b7f4e487b71000000000000000000000000000000000000000000000000000000005f52601160045260245ffd5b5f6102d08261023b565b91506102db8361023b565b92508282019050808211156102f3576102f2610299565b5b92915050565b6103028161023b565b82525050565b5f60208201905061031b5f8301846102f9565b92915050565b6114228061032e5f395ff3fe608060405234801561000f575f5ffd5b50600436106100f3575f3560e01c806342966c681161009557806395d89b411161006457806395d89b4114610271578063a457c2d71461028f578063a9059cbb146102bf578063dd62ed3e146102ef576100f3565b806342966c68146101fd57806370a0823114610219578063715018a6146102495780638da5cb5b14610253576100f3565b806323b872dd116100d157806323b872dd14610163578063313ce5671461019357806339509351146101b157806340c10f19146101e1576100f3565b806306fdde03146100f7578063095ea7b31461011557806318160ddd14610145575b5f5ffd5b6100ff61031f565b60405161010c91906110cf565b60405180910390f35b61012f600480360381019061012a9190611180565b610358565b60405161013c91906111d8565b60405180910390f35b61014d61036e565b60405161015a9190611200565b60405180910390f35b61017d60048036038101906101789190611219565b610377565b60405161018a91906111d8565b60405180910390f35b61019b61045b565b6040516101a89190611284565b60405180910390f35b6101cb60048036038101906101c69190611180565b610460565b6040516101d891906111d8565b60405180910390f35b6101fb60048036038101906101f69190611180565b6104f9565b005b6102176004803603810190610212919061129d565b61058d565b005b610233600480360381019061022e91906112c8565b61059a565b6040516102409190611200565b60405180910390f35b6102516105df565b005b61025b610710565b6040516102689190611302565b60405180910390f35b610279610735565b60405161028691906110cf565b60405180910390f35b6102a960048036038101906102a49190611180565b61076e565b6040516102b691906111d8565b60405180910390f35b6102d960048036038101906102d49190611180565b610846565b6040516102e691906111d8565b60405180910390f35b6103096004803603810190610304919061131b565b61085c565b6040516103169190611200565b60405180910390f35b6040518060400160405280600b81526020017f5379646e6579546f6b656e00000000000000000000000000000000000000000081525081565b5f6103643384846108de565b6001905092915050565b5f600254905090565b5f5f60015f8673ffffffffffffffffffffffffffffffffffffffff1673ffffffffffffffffffffffffffffffffffffffff1681526020019081526020015f205f3373ffffffffffffffffffffffffffffffffffffffff1673ffffffffffffffffffffffffffffffffffffffff1681526020019081526020015f205490508281101561042e576040517f13be252b00000000000000000000000000000000000000000000000000000000815260040160405180910390fd5b610439858585610a8f565b61044f8533858461044a9190611386565b6108de565b60019150509392505050565b601281565b5f6104ef33848460015f3373ffffffffffffffffffffffffffffffffffffffff1673ffffffffffffffffffffffffffffffffffffffff1681526020019081526020015f205f8873ffffffffffffffffffffffffffffffffffffffff1673ffffffffffffffffffffffffffffffffffffffff1681526020019081526020015f20546104ea91906113b9565b6108de565b6001905092915050565b60035f9054906101000a900473ffffffffffffffffffffffffffffffffffffffff1673ffffffffffffffffffffffffffffffffffffffff163373ffffffffffffffffffffffffffffffffffffffff161461057f576040517f5fc483c500000000000000000000000000000000000000000000000000000000815260040160405180910390fd5b6105898282610cdd565b5050565b6105973382610e63565b50565b5f5f5f8373ffffffffffffffffffffffffffffffffffffffff1673ffffffffffffffffffffffffffffffffffffffff1681526020019081526020015f20549050919050565b60035f9054906101000a900473ffffffffffffffffffffffffffffffffffffffff1673ffffffffffffffffffffffffffffffffffffffff163373ffffffffffffffffffffffffffffffffffffffff1614610665576040517f5fc483c500000000000000000000000000000000000000000000000000000000815260040160405180910390fd5b5f60035f9054906101000a900473ffffffffffffffffffffffffffffffffffffffff1690505f60035f6101000a81548173ffffffffffffffffffffffffffffffffffffffff021916908373ffffffffffffffffffffffffffffffffffffffff1602179055508073ffffffffffffffffffffffffffffffffffffffff167ff8df31144d9c2f0f6b59d69b8b98abd5459d07f2742c4df920b25aae33c6482060405160405180910390a250565b60035f9054906101000a900473ffffffffffffffffffffffffffffffffffffffff1681565b6040518060400160405280600381526020017f535944000000000000000000000000000000000000000000000000000000000081525081565b5f5f60015f3373ffffffffffffffffffffffffffffffffffffffff1673ffffffffffffffffffffffffffffffffffffffff1681526020019081526020015f205f8573ffffffffffffffffffffffffffffffffffffffff1673ffffffffffffffffffffffffffffffffffffffff1681526020019081526020015f2054905082811015610825576040517f13be252b00000000000000000000000000000000000000000000000000000000815260040160405180910390fd5b61083b338585846108369190611386565b6108de565b600191505092915050565b5f610852338484610a8f565b6001905092915050565b5f60015f8473ffffffffffffffffffffffffffffffffffffffff1673ffffffffffffffffffffffffffffffffffffffff1681526020019081526020015f205f8373ffffffffffffffffffffffffffffffffffffffff1673ffffffffffffffffffffffffffffffffffffffff1681526020019081526020015f2054905092915050565b5f73ffffffffffffffffffffffffffffffffffffffff168373ffffffffffffffffffffffffffffffffffffffff1603610943576040517fd92e233d00000000000000000000000000000000000000000000000000000000815260040160405180910390fd5b5f73ffffffffffffffffffffffffffffffffffffffff168273ffffffffffffffffffffffffffffffffffffffff16036109a8576040517fd92e233d00000000000000000000000000000000000000000000000000000000815260040160405180910390fd5b8060015f8573ffffffffffffffffffffffffffffffffffffffff1673ffffffffffffffffffffffffffffffffffffffff1681526020019081526020015f205f8473ffffffffffffffffffffffffffffffffffffffff1673ffffffffffffffffffffffffffffffffffffffff1681526020019081526020015f20819055508173ffffffffffffffffffffffffffffffffffffffff168373ffffffffffffffffffffffffffffffffffffffff167f8c5be1e5ebec7d5bd14f71427d1e84f3dd0314c0f7b2291e5b200ac8c7c3b92583604051610a829190611200565b60405180910390a3505050565b5f73ffffffffffffffffffffffffffffffffffffffff168373ffffffffffffffffffffffffffffffffffffffff1603610af4576040517fd92e233d00000000000000000000000000000000000000000000000000000000815260040160405180910390fd5b5f73ffffffffffffffffffffffffffffffffffffffff168273ffffffffffffffffffffffffffffffffffffffff1603610b59576040517fd92e233d00000000000000000000000000000000000000000000000000000000815260040160405180910390fd5b805f5f8573ffffffffffffffffffffffffffffffffffffffff1673ffffffffffffffffffffffffffffffffffffffff1681526020019081526020015f20541015610bcf576040517ff4d678b800000000000000000000000000000000000000000000000000000000815260040160405180910390fd5b805f5f8573ffffffffffffffffffffffffffffffffffffffff1673ffffffffffffffffffffffffffffffffffffffff1681526020019081526020015f205f828254610c1a9190611386565b92505081905550805f5f8473ffffffffffffffffffffffffffffffffffffffff1673ffffffffffffffffffffffffffffffffffffffff1681526020019081526020015f205f828254610c6c91906113b9565b925050819055508173ffffffffffffffffffffffffffffffffffffffff168373ffffffffffffffffffffffffffffffffffffffff167fddf252ad1be2c89b69c2b068fc378daa952ba7f163c4a11628f55a4df523b3ef83604051610cd09190611200565b60405180910390a3505050565b5f73ffffffffffffffffffffffffffffffffffffffff168273ffffffffffffffffffffffffffffffffffffffff1603610d42576040517fd92e233d00000000000000000000000000000000000000000000000000000000815260040160405180910390fd5b8060025f828254610d5391906113b9565b92505081905550805f5f8473ffffffffffffffffffffffffffffffffffffffff1673ffffffffffffffffffffffffffffffffffffffff1681526020019081526020015f205f828254610da591906113b9565b925050819055508173ffffffffffffffffffffffffffffffffffffffff165f73ffffffffffffffffffffffffffffffffffffffff167fddf252ad1be2c89b69c2b068fc378daa952ba7f163c4a11628f55a4df523b3ef83604051610e099190611200565b60405180910390a38173ffffffffffffffffffffffffffffffffffffffff167f30385c845b448a36257a6a1716e6ad2e1bc2cbe333cde1e69fe849ad6511adfe82604051610e579190611200565b60405180910390a25050565b5f73ffffffffffffffffffffffffffffffffffffffff168273ffffffffffffffffffffffffffffffffffffffff1603610ec8576040517fd92e233d00000000000000000000000000000000000000000000000000000000815260040160405180910390fd5b805f5f8473ffffffffffffffffffffffffffffffffffffffff1673ffffffffffffffffffffffffffffffffffffffff1681526020019081526020015f20541015610f3e576040517ff4d678b800000000000000000000000000000000000000000000000000000000815260040160405180910390fd5b805f5f8473ffffffffffffffffffffffffffffffffffffffff1673ffffffffffffffffffffffffffffffffffffffff1681526020019081526020015f205f828254610f899190611386565b925050819055508060025f828254610fa19190611386565b925050819055505f73ffffffffffffffffffffffffffffffffffffffff168273ffffffffffffffffffffffffffffffffffffffff167fddf252ad1be2c89b69c2b068fc378daa952ba7f163c4a11628f55a4df523b3ef836040516110059190611200565b60405180910390a38173ffffffffffffffffffffffffffffffffffffffff167f696de425f79f4a40bc6d2122ca50507f0efbeabbff86a84871b7196ab8ea8df7826040516110539190611200565b60405180910390a25050565b5f81519050919050565b5f82825260208201905092915050565b8281835e5f83830152505050565b5f601f19601f8301169050919050565b5f6110a18261105f565b6110ab8185611069565b93506110bb818560208601611079565b6110c481611087565b840191505092915050565b5f6020820190508181035f8301526110e78184611097565b905092915050565b5f5ffd5b5f73ffffffffffffffffffffffffffffffffffffffff82169050919050565b5f61111c826110f3565b9050919050565b61112c81611112565b8114611136575f5ffd5b50565b5f8135905061114781611123565b92915050565b5f819050919050565b61115f8161114d565b8114611169575f5ffd5b50565b5f8135905061117a81611156565b92915050565b5f5f60408385031215611196576111956110ef565b5b5f6111a385828601611139565b92505060206111b48582860161116c565b9150509250929050565b5f8115159050919050565b6111d2816111be565b82525050565b5f6020820190506111eb5f8301846111c9565b92915050565b6111fa8161114d565b82525050565b5f6020820190506112135f8301846111f1565b92915050565b5f5f5f606084860312156112305761122f6110ef565b5b5f61123d86828701611139565b935050602061124e86828701611139565b925050604061125f8682870161116c565b9150509250925092565b5f60ff82169050919050565b61127e81611269565b82525050565b5f6020820190506112975f830184611275565b92915050565b5f602082840312156112b2576112b16110ef565b5b5f6112bf8482850161116c565b91505092915050565b5f602082840312156112dd576112dc6110ef565b5b5f6112ea84828501611139565b91505092915050565b6112fc81611112565b82525050565b5f6020820190506113155f8301846112f3565b92915050565b5f5f60408385031215611331576113306110ef565b5b5f61133e85828601611139565b925050602061134f85828601611139565b9150509250929050565b7f4e487b71000000000000000000000000000000000000000000000000000000005f52601160045260245ffd5b5f6113908261114d565b915061139b8361114d565b92508282039050818111156113b3576113b2611359565b5b92915050565b5f6113c38261114d565b91506113ce8361114d565b92508282019050808211156113e6576113e5611359565b5b9291505056fea264697066735822122046ef39961b966037357cd9ab3331c2252aa2ef6a111906e90bfc9ada314e694d64736f6c63430008210033",
    "linkReferences": {}
  },
  "methodIdentifiers": {
    "allowance(address,address)": "dd62ed3e",
    "approve(address,uint256)": "095ea7b3",
    "balanceOf(address)": "70a08231",
    "burn(uint256)": "42966c68",
    "decimals()": "313ce567",
    "decreaseAllowance(address,uint256)": "a457c2d7",
    "increaseAllowance(address,uint256)": "39509351",
    "mint(address,uint256)": "40c10f19",
    "name()": "06fdde03",
    "owner()": "8da5cb5b",
    "renounceOwnership()": "715018a6",
    "symbol()": "95d89b41",
    "totalSupply()": "18160ddd",
    "transfer(address,uint256)": "a9059cbb",
    "transferFrom(address,address,uint256)": "23b872dd"
  },
  "id": 21
}