{
  "abi": [
    {
      "type": "constructor",
      "inputs": [
        {
          "name": "initialSupply",
          "type": "uint256",
          "internalType": "uint256"
        }
      ],
      "stateMutability": "nonpayable"
    },
    {
      "type": "function",
      "name": "allowance",
      "inputs": [
        {
          "name": "_owner",
          "type": "address",
          "internalType": "address"
        },
        {
          "name": "spender",
          "type": "address",
          "internalType": "address"
        }
      ],
      "outputs": [
        {
          "name": "",
          "type": "uint256",
          "internalType": "uint256"
        }
      ],
      "stateMutability": "view"
    },
    {
      "type": "function",
      "name": "approve",
      "inputs": [
        {
          "name": "spender",
          "type": "address",
          "internalType": "address"
        },
        {
          "name": "amount",
          "type": "uint256",
          "internalType": "uint256"
        }
      ],
      "outputs": [
        {
          "name": "",
          "type": "bool",
          "internalType": "bool"
        }
      ],
      "stateMutability": "nonpayable"
    },
    {
      "type": "function",
      "name": "balanceOf",
      "inputs": [
        {
          "name": "account",
          "type": "address",
          "internalType": "address"
        }
      ],
      "outputs": [
        {
          "name": "",
          "type": "uint256",
          "internalType": "uint256"
        }
      ],
      "stateMutability": "view"
    },
    {
      "type": "function",
      "name": "burn",
      "inputs": [
        {
          "name": "amount",
          "type": "uint256",
          "internalType": "uint256"
        }
      ],
      "outputs": [],
      "stateMutability": "nonpayable"
    },
    {
      "type": "function",
      "name": "decimals",
      "inputs": [],
      "outputs": [
        {
          "name": "",
          "type": "uint8",
          "internalType": "uint8"
        }
      ],
      "stateMutability": "view"
    },
    {
      "type": "function",
      "name": "decreaseAllowance",
      "inputs": [
        {
          "name": "spender",
          "type": "address",
          "internalType": "address"
        },
        {
          "name": "subtractedValue",
          "type": "uint256",
          "internalType": "uint256"
        }
      ],
      "outputs": [
        {
          "name": "",
          "type": "bool",
          "internalType": "bool"
        }
      ],
      "stateMutability": "nonpayable"
    },
    {
      "type": "function",
      "name": "increaseAllowance",
      "inputs": [
        {
          "name": "spender",
          "type": "address",
          "internalType": "address"
        },
        {
          "name": "addedValue",
          "type": "uint256",
          "internalType": "uint256"
        }
      ],
      "outputs": [
        {
          "name": "",
          "type": "bool",
          "internalType": "bool"
        }
      ],
      "stateMutability": "nonpayable"
    },
    {
      "type": "function",
      "name": "mint",
      "inputs": [
        {
          "name": "to",
          "type": "address",
          "internalType": "address"
        },
        {
          "name": "amount",
          "type": "uint256",
          "internalType": "uint256"
        }
      ],
      "outputs": [],
      "stateMutability": "nonpayable"
    },
    {
      "type": "function",
      "name": "name",
      "inputs": [],
      "outputs": [
        {
          "name": "",
          "type": "string",
          "internalType": "string"
        }
      ],
      "stateMutability": "view"
    },
    {
      "type": "function",
      "name": "owner",
      "inputs": [],
      "outputs": [
        {
          "name": "",
          "type": "address",
          "internalType": "address"
        }
      ],
      "stateMutability": "view"
    },
    {
      "type": "function",
      "name": "renounceOwnership",
      "inputs": [],
      "outputs": [],
      "stateMutability": "nonpayable"
    },
    {
      "type": "function",
      "name": "symbol",
      "inputs": [],
      "outputs": [
        {
          "name": "",
          "type": "string",
          "internalType": "string"
        }
      ],
      "stateMutability": "view"
    },
    {
      "type": "function",
      "name": "totalSupply",
      "inputs": [],
      "outputs": [
        {
          "name": "",
          "type": "uint256",
          "internalType": "uint256"
        }
      ],
      "stateMutability": "view"
    },
    {
      "type": "function",
      "name": "transfer",
      "inputs": [
        {
          "name": "recipient",
          "type": "address",
          "internalType": "address"
        },
        {
          "name": "amount",
          "type": "uint256",
          "internalType": "uint256"
        }
      ],
      "outputs": [
        {
          "name": "",
          "type": "bool",
          "internalType": "bool"
        }
      ],
      "stateMutability": "nonpayable"
    },
    {
      "type": "function",
      "name": "transferFrom",
      "inputs": [
        {
          "name": "sender",
          "type": "address",
          "internalType": "address"
        },
        {
          "name": "recipient",
          "type": "address",
          "internalType": "address"
        },
        {
          "name": "amount",
          "type": "uint256",
          "internalType": "uint256"
        }
      ],
      "outputs": [
        {
          "name": "",
          "type": "bool",
          "internalType": "bool"
        }
      ],
      "stateMutability": "nonpayable"
    },
    {
      "type": "event",
      "name": "Approval",
      "inputs": [
        {
          "name": "owner",
          "type": "address",
          "indexed": true,
          "internalType": "address"
        },
        {
          "name": "spender",
          "type": "address",
          "indexed": true,
          "internalType": "address"
        },
        {
          "name": "value",
          "type": "uint256",
          "indexed": false,
          "internalType": "uint256"
        }
      ],
      "anonymous": false
    },
    {
      "type": "event",
      "name": "Burned",
      "inputs": [
        {
          "name": "from",
          "type": "address",
          "indexed": true,
          "internalType": "address"
        },
        {
          "name": "amount",
          "type": "uint256",
          "indexed": false,
          "internalType": "uint256"
        }
      ],
      "anonymous": false
    },
    {
      "type": "event",
      "name": "Minted",
      "inputs": [
        {
          "name": "to",
          "type": "address",
          "indexed": true,
          "internalType": "address"
        },
        {
          "name": "amount",
          "type": "uint256",
          "indexed": false,
          "internalType": "uint256"
        }
      ],
      "anonymous": false
    },
    {
      "type": "event",
      "name": "OwnershipRenounced",
      "inputs": [
        {
          "name": "previousOwner",
          "type": "address",
          "indexed": true,
          "internalType": "address"
        }
      ],
      "anonymous": false
    },
    {
      "type": "event",
      "name": "Transfer",
      "inputs": [
        {
          "name": "from",
          "type": "address",
          "indexed": true,
          "internalType": "address"
        },
        {
          "name": "to",
          "type": "address",
          "indexed": true,
          "internalType": "address"
        },
        {
          "name": "value",
          "type": "uint256",
          "indexed": false,
          "internalType": "uint256"
        }
      ],
      "anonymous": false
    }
  ],
  "bytecode": {
    "object": "0x608060405234801561000f575f5ffd5b50604051610e0a380380610e0a83398101604081905261002e91610185565b600380546001600160a01b03191633179055801561005c5760035461005c906001600160a01b031682610062565b506101c1565b6001600160a01b0382166100bc5760405162461bcd60e51b815260206004820152601b60248201527f45524332303a206d696e7420746f207a65726f20616464726573730000000000604482015260640160405180910390fd5b8060025f8282546100cd919061019c565b90915550506001600160a01b0382165f90815260208190526040812080548392906100f990849061019c565b90915550506040518181526001600160a01b038316905f907fddf252ad1be2c89b69c2b068fc378daa952ba7f163c4a11628f55a4df523b3ef9060200160405180910390a3816001600160a01b03167f30385c845b448a36257a6a1716e6ad2e1bc2cbe333cde1e69fe849ad6511adfe8260405161017991815260200190565b60405180910390a25050565b5f60208284031215610195575f5ffd5b5051919050565b808201808211156101bb57634e487b7160e01b5f52601160045260245ffd5b92915050565b610c3c806101ce5f395ff3fe608060405234801561000f575f5ffd5b50600436106100f0575f3560e01c806342966c681161009357806395d89b411161006357806395d89b411461022c578063a457c2d71461024e578063a9059cbb14610261578063dd62ed3e14610274575f5ffd5b806342966c68146101be57806370a08231146101d1578063715018a6146101f95780638da5cb5b14610201575f5ffd5b806323b872dd116100ce57806323b872dd14610169578063313ce5671461017c578063395093511461019657806340c10f19146101a9575f5ffd5b806306fdde03146100f4578063095ea7b31461013457806318160ddd14610157575b5f5ffd5b61011e6040518060400160405280600b81526020016a29bcb23732bcaa37b5b2b760a91b81525081565b60405161012b9190610ab2565b60405180910390f35b610147610142366004610b02565b6102ac565b604051901515815260200161012b565b6002545b60405190815260200161012b565b610147610177366004610b2a565b6102c2565b610184601281565b60405160ff909116815260200161012b565b6101476101a4366004610b02565b610364565b6101bc6101b7366004610b02565b61039a565b005b6101bc6101cc366004610b64565b6103ef565b61015b6101df366004610b7b565b6001600160a01b03165f9081526020819052604090205490565b6101bc6103fc565b600354610214906001600160a01b031681565b6040516001600160a01b03909116815260200161012b565b61011e6040518060400160405280600381526020016214d65160ea1b81525081565b61014761025c366004610b02565b61048e565b61014761026f366004610b02565b610528565b61015b610282366004610b9b565b6001600160a01b039182165f90815260016020908152604080832093909416825291909152205490565b5f6102b8338484610534565b5060015b92915050565b6001600160a01b0383165f9081526001602090815260408083203384529091528120548281101561033a5760405162461bcd60e51b815260206004820152601d60248201527f45524332303a20696e73756666696369656e7420616c6c6f77616e636500000060448201526064015b60405180910390fd5b610345858585610641565b61035985336103548685610be0565b610534565b506001949350505050565b335f8181526001602090815260408083206001600160a01b038716845290915281205490916102b8918590610354908690610bf3565b6003546001600160a01b031633146103e15760405162461bcd60e51b815260206004820152600a60248201526927b7363c9037bbb732b960b11b6044820152606401610331565b6103eb828261080c565b5050565b6103f9338261092b565b50565b6003546001600160a01b031633146104435760405162461bcd60e51b815260206004820152600a60248201526927b7363c9037bbb732b960b11b6044820152606401610331565b600380546001600160a01b031981169091556040516001600160a01b039091169081907ff8df31144d9c2f0f6b59d69b8b98abd5459d07f2742c4df920b25aae33c64820905f90a250565b335f9081526001602090815260408083206001600160a01b03861684529091528120548281101561050f5760405162461bcd60e51b815260206004820152602560248201527f45524332303a2064656372656173656420616c6c6f77616e63652062656c6f77604482015264207a65726f60d81b6064820152608401610331565b61051e33856103548685610be0565b5060019392505050565b5f6102b8338484610641565b6001600160a01b03831661058a5760405162461bcd60e51b815260206004820181905260248201527f45524332303a20617070726f76652066726f6d207a65726f20616464726573736044820152606401610331565b6001600160a01b0382166105e05760405162461bcd60e51b815260206004820152601e60248201527f45524332303a20617070726f766520746f207a65726f206164647265737300006044820152606401610331565b6001600160a01b038381165f8181526001602090815260408083209487168084529482529182902085905590518481527f8c5be1e5ebec7d5bd14f71427d1e84f3dd0314c0f7b2291e5b200ac8c7c3b92591015b60405180910390a3505050565b6001600160a01b0383166106a15760405162461bcd60e51b815260206004820152602160248201527f45524332303a207472616e736665722066726f6d207a65726f206164647265736044820152607360f81b6064820152608401610331565b6001600160a01b0382166106f75760405162461bcd60e51b815260206004820152601f60248201527f45524332303a207472616e7366657220746f207a65726f2061646472657373006044820152606401610331565b6001600160a01b0383165f9081526020819052604090205481111561076d5760405162461bcd60e51b815260206004820152602660248201527f45524332303a207472616e7366657220616d6f756e7420657863656564732062604482015265616c616e636560d01b6064820152608401610331565b6001600160a01b0383165f9081526020819052604081208054839290610794908490610be0565b90915550506001600160a01b0382165f90815260208190526040812080548392906107c0908490610bf3565b92505081905550816001600160a01b0316836001600160a01b03167fddf252ad1be2c89b69c2b068fc378daa952ba7f163c4a11628f55a4df523b3ef8360405161063491815260200190565b6001600160a01b0382166108625760405162461bcd60e51b815260206004820152601b60248201527f45524332303a206d696e7420746f207a65726f206164647265737300000000006044820152606401610331565b8060025f8282546108739190610bf3565b90915550506001600160a01b0382165f908152602081905260408120805483929061089f908490610bf3565b90915550506040518181526001600160a01b038316905f907fddf252ad1be2c89b69c2b068fc378daa952ba7f163c4a11628f55a4df523b3ef9060200160405180910390a3816001600160a01b03167f30385c845b448a36257a6a1716e6ad2e1bc2cbe333cde1e69fe849ad6511adfe8260405161091f91815260200190565b60405180910390a25050565b6001600160a01b0382166109815760405162461bcd60e51b815260206004820152601d60248201527f45524332303a206275726e2066726f6d207a65726f20616464726573730000006044820152606401610331565b6001600160a01b0382165f908152602081905260409020548111156109f35760405162461bcd60e51b815260206004820152602260248201527f45524332303a206275726e20616d6f756e7420657863656564732062616c616e604482015261636560f01b6064820152608401610331565b6001600160a01b0382165f9081526020819052604081208054839290610a1a908490610be0565b925050819055508060025f828254610a329190610be0565b90915550506040518181525f906001600160a01b038416907fddf252ad1be2c89b69c2b068fc378daa952ba7f163c4a11628f55a4df523b3ef9060200160405180910390a3816001600160a01b03167f696de425f79f4a40bc6d2122ca50507f0efbeabbff86a84871b7196ab8ea8df78260405161091f91815260200190565b602081525f82518060208401528060208501604085015e5f604082850101526040601f19601f83011684010191505092915050565b80356001600160a01b0381168114610afd575f5ffd5b919050565b5f5f60408385031215610b13575f5ffd5b610b1c83610ae7565b946020939093013593505050565b5f5f5f60608486031215610b3c575f5ffd5b610b4584610ae7565b9250610b5360208501610ae7565b929592945050506040919091013590565b5f60208284031215610b74575f5ffd5b5035919050565b5f60208284031215610b8b575f5ffd5b610b9482610ae7565b9392505050565b5f5f60408385031215610bac575f5ffd5b610bb583610ae7565b9150610bc360208401610ae7565b90509250929050565b634e487b7160e01b5f52601160045260245ffd5b818103818111156102bc576102bc610bcc565b808201808211156102bc576102bc610bcc56fea26469706673582212204da053c153911f1897cd3f05a6a7f87d85aa3259c0bbe4ed99413ea453747f1364736f6c634300081c0033",
    "linkReferences": {}
  },
  "methodIdentifiers": {
    "allowance(address,address)": "dd62ed3e",
    "approve(address,uint256)": "095ea7b3",
    "balanceOf(address)": "70a08231",
    "burn(uint256)": "42966c68",
    "decimals()": "313ce567",
    "decreaseAllowance(address,uint256)": "a457c2d7",
    "increaseAllowance(address,uint256)": "39509351",
    "mint(address,uint256)": "40c10f19",
    "name()": "06fdde03",
    "owner()": "8da5cb5b",
    "renounceOwnership()": "715018a6",
    "symbol()": "95d89b41",
    "totalSupply()": "18160ddd",
    "transfer(address,uint256)": "a9059cbb",
    "transferFrom(address,address,uint256)": "23b872dd"
  },
  "id": 1
}