{
  "abi": [
    {
      "type": "constructor",
      "inputs": [
        {
          "name": "initialSupply",
          "type": "uint256",
          "internalType": "uint256"
        }
      ],
      "stateMutability": "nonpayable"
    },
    {
      "type": "function",
      "name": "allowance",
      "inputs": [
        {
          "name": "_owner",
          "type": "address",
          "internalType": "address"
        },
        {
          "name": "spender",
          "type": "address",
          "internalType": "address"
        }
      ],
      "outputs": [
        {
          "name": "",
          "type": "uint256",
          "internalType": "uint256"
        }
      ],
      "stateMutability": "view"
    },
    {
      "type": "function",
      "name": "approve",
      "inputs": [
        {
          "name": "spender",
          "type": "address",
          "internalType": "address"
        },
        {
          "name": "amount",
          "type": "uint256",
          "internalType": "uint256"
        }
      ],
      "outputs": [
        {
          "name": "",
          "type": "bool",
          "internalType": "bool"
        }
      ],
      "stateMutability": "nonpayable"
    },
    {
      "type": "function",
      "name": "balanceOf",
      "inputs": [
        {
          "name": "account",
          "type": "address",
          "internalType": "address"
        }
      ],
      "outputs": [
        {
          "name": "",
          "type": "uint256",
          "internalType": "uint256"
        }
      ],
      "stateMutability": "view"
    },
    {
      "type": "function",
      "name": "burn",
      "inputs": [
        {
          "name": "amount",
          "type": "uint256",
          "internalType": "uint256"
        }
      ],
      "outputs": [],
      "stateMutability": "nonpayable"
    },
    {
      "type": "function",
      "name": "decimals",
      "inputs": [],
      "outputs": [
        {
          "name": "",
          "type": "uint8",
          "internalType": "uint8"
        }
      ],
      "stateMutability": "view"
    },
    {
      "type": "function",
      "name": "decreaseAllowance",
      "inputs": [
        {
          "name": "spender",
          "type": "address",
          "internalType": "address"
        },
        {
          "name": "subtractedValue",
          "type": "uint256",
          "internalType": "uint256"
        }
      ],
      "outputs": [
        {
          "name": "",
          "type": "bool",
          "internalType": "bool"
        }
      ],
      "stateMutability": "nonpayable"
    },
    {
      "type": "function",
      "name": "increaseAllowance",
      "inputs": [
        {
          "name": "spender",
          "type": "address",
          "internalType": "address"
        },
        {
          "name": "addedValue",
          "type": "uint256",
          "internalType": "uint256"
        }
      ],
      "outputs": [
        {
          "name": "",
          "type": "bool",
          "internalType": "bool"
        }
      ],
      "stateMutability": "nonpayable"
    },
    {
      "type": "function",
      "name": "mint",
      "inputs": [
        {
          "name": "to",
          "type": "address",
          "internalType": "address"
        },
        {
          "name": "amount",
          "type": "uint256",
          "internalType": "uint256"
        }
      ],
      "outputs": [],
      "stateMutability": "nonpayable"
    },
    {
      "type": "function",
      "name": "name",
      "inputs": [],
      "outputs": [
        {
          "name": "",
          "type": "string",
          "internalType": "string"
        }
      ],
      "stateMutability": "view"
    },
    {
      "type": "function",
      "name": "owner",
      "inputs": [],
      "outputs": [
        {
          "name": "",
          "type": "address",
          "internalType": "address"
        }
      ],
      "stateMutability": "view"
    },
    {
      "type": "function",
      "name": "symbol",
      "inputs": [],
      "outputs": [
        {
          "name": "",
          "type": "string",
          "internalType": "string"
        }
      ],
      "stateMutability": "view"
    },
    {
      "type": "function",
      "name": "totalSupply",
      "inputs": [],
      "outputs": [
        {
          "name": "",
          "type": "uint256",
          "internalType": "uint256"
        }
      ],
      "stateMutability": "view"
    },
    {
      "type": "function",
      "name": "transfer",
      "inputs": [
        {
          "name": "recipient",
          "type": "address",
          "internalType": "address"
        },
        {
          "name": "amount",
          "type": "uint256",
          "internalType": "uint256"
        }
      ],
      "outputs": [
        {
          "name": "",
          "type": "bool",
          "internalType": "bool"
        }
      ],
      "stateMutability": "nonpayable"
    },
    {
      "type": "function",
      "name": "transferFrom",
      "inputs": [
        {
          "name": "sender",
          "type": "address",
          "internalType": "address"
        },
        {
          "name": "recipient",
          "type": "address",
          "internalType": "address"
        },
        {
          "name": "amount",
          "type": "uint256",
          "internalType": "uint256"
        }
      ],
      "outputs": [
        {
          "name": "",
          "type": "bool",
          "internalType": "bool"
        }
      ],
      "stateMutability": "nonpayable"
    },
    {
      "type": "event",
      "name": "Approval",
      "inputs": [
        {
          "name": "owner",
          "type": "address",
          "indexed": true,
          "internalType": "address"
        },
        {
          "name": "spender",
          "type": "address",
          "indexed": true,
          "internalType": "address"
        },
        {
          "name": "value",
          "type": "uint256",
          "indexed": false,
          "internalType": "uint256"
        }
      ],
      "anonymous": false
    },
    {
      "type": "event",
      "name": "Burned",
      "inputs": [
        {
          "name": "from",
          "type": "address",
          "indexed": true,
          "internalType": "address"
        },
        {
          "name": "amount",
          "type": "uint256",
          "indexed": false,
          "internalType": "uint256"
        }
      ],
      "anonymous": false
    },
    {
      "type": "event",
      "name": "Minted",
      "inputs": [
        {
          "name": "to",
          "type": "address",
          "indexed": true,
          "internalType": "address"
        },
        {
          "name": "amount",
          "type": "uint256",
          "indexed": false,
          "internalType": "uint256"
        }
      ],
      "anonymous": false
    },
    {
      "type": "event",
      "name": "Transfer",
      "inputs": [
        {
          "name": "from",
          "type": "address",
          "indexed": true,
          "internalType": "address"
        },
        {
          "name": "to",
          "type": "address",
          "indexed": true,
          "internalType": "address"
        },
        {
          "name": "value",
          "type": "uint256",
          "indexed": false,
          "internalType": "uint256"
        }
      ],
      "anonymous": false
    }
  ],
  "bytecode": {
    "object": "0x608060405234801561000f575f5ffd5b50604051610d65380380610d6583398101604081905261002e91610185565b600380546001600160a01b03191633179055801561005c5760035461005c906001600160a01b031682610062565b506101c1565b6001600160a01b0382166100bc5760405162461bcd60e51b815260206004820152601b60248201527f45524332303a206d696e7420746f207a65726f20616464726573730000000000604482015260640160405180910390fd5b8060025f8282546100cd919061019c565b90915550506001600160a01b0382165f90815260208190526040812080548392906100f990849061019c565b90915550506040518181526001600160a01b038316905f907fddf252ad1be2c89b69c2b068fc378daa952ba7f163c4a11628f55a4df523b3ef9060200160405180910390a3816001600160a01b03167f30385c845b448a36257a6a1716e6ad2e1bc2cbe333cde1e69fe849ad6511adfe8260405161017991815260200190565b60405180910390a25050565b5f60208284031215610195575f5ffd5b5051919050565b808201808211156101bb57634e487b7160e01b5f52601160045260245ffd5b92915050565b610b97806101ce5f395ff3fe608060405234801561000f575f5ffd5b50600436106100e5575f3560e01c806342966c681161008857806395d89b411161006357806395d89b4114610219578063a457c2d71461023b578063a9059cbb1461024e578063dd62ed3e14610261575f5ffd5b806342966c68146101b357806370a08231146101c65780638da5cb5b146101ee575f5ffd5b806323b872dd116100c357806323b872dd1461015e578063313ce56714610171578063395093511461018b57806340c10f191461019e575f5ffd5b806306fdde03146100e9578063095ea7b31461012957806318160ddd1461014c575b5f5ffd5b6101136040518060400160405280600b81526020016a29bcb23732bcaa37b5b2b760a91b81525081565b6040516101209190610a0d565b60405180910390f35b61013c610137366004610a5d565b610299565b6040519015158152602001610120565b6002545b604051908152602001610120565b61013c61016c366004610a85565b6102af565b610179601281565b60405160ff9091168152602001610120565b61013c610199366004610a5d565b610351565b6101b16101ac366004610a5d565b610387565b005b6101b16101c1366004610abf565b6103dc565b6101506101d4366004610ad6565b6001600160a01b03165f9081526020819052604090205490565b600354610201906001600160a01b031681565b6040516001600160a01b039091168152602001610120565b6101136040518060400160405280600381526020016214d65160ea1b81525081565b61013c610249366004610a5d565b6103e9565b61013c61025c366004610a5d565b610483565b61015061026f366004610af6565b6001600160a01b039182165f90815260016020908152604080832093909416825291909152205490565b5f6102a533848461048f565b5060015b92915050565b6001600160a01b0383165f908152600160209081526040808320338452909152812054828110156103275760405162461bcd60e51b815260206004820152601d60248201527f45524332303a20696e73756666696369656e7420616c6c6f77616e636500000060448201526064015b60405180910390fd5b61033285858561059c565b61034685336103418685610b3b565b61048f565b506001949350505050565b335f8181526001602090815260408083206001600160a01b038716845290915281205490916102a5918590610341908690610b4e565b6003546001600160a01b031633146103ce5760405162461bcd60e51b815260206004820152600a60248201526927b7363c9037bbb732b960b11b604482015260640161031e565b6103d88282610767565b5050565b6103e63382610886565b50565b335f9081526001602090815260408083206001600160a01b03861684529091528120548281101561046a5760405162461bcd60e51b815260206004820152602560248201527f45524332303a2064656372656173656420616c6c6f77616e63652062656c6f77604482015264207a65726f60d81b606482015260840161031e565b61047933856103418685610b3b565b5060019392505050565b5f6102a533848461059c565b6001600160a01b0383166104e55760405162461bcd60e51b815260206004820181905260248201527f45524332303a20617070726f76652066726f6d207a65726f2061646472657373604482015260640161031e565b6001600160a01b03821661053b5760405162461bcd60e51b815260206004820152601e60248201527f45524332303a20617070726f766520746f207a65726f20616464726573730000604482015260640161031e565b6001600160a01b038381165f8181526001602090815260408083209487168084529482529182902085905590518481527f8c5be1e5ebec7d5bd14f71427d1e84f3dd0314c0f7b2291e5b200ac8c7c3b92591015b60405180910390a3505050565b6001600160a01b0383166105fc5760405162461bcd60e51b815260206004820152602160248201527f45524332303a207472616e736665722066726f6d207a65726f206164647265736044820152607360f81b606482015260840161031e565b6001600160a01b0382166106525760405162461bcd60e51b815260206004820152601f60248201527f45524332303a207472616e7366657220746f207a65726f206164647265737300604482015260640161031e565b6001600160a01b0383165f908152602081905260409020548111156106c85760405162461bcd60e51b815260206004820152602660248201527f45524332303a207472616e7366657220616d6f756e7420657863656564732062604482015265616c616e636560d01b606482015260840161031e565b6001600160a01b0383165f90815260208190526040812080548392906106ef908490610b3b565b90915550506001600160a01b0382165f908152602081905260408120805483929061071b908490610b4e565b92505081905550816001600160a01b0316836001600160a01b03167fddf252ad1be2c89b69c2b068fc378daa952ba7f163c4a11628f55a4df523b3ef8360405161058f91815260200190565b6001600160a01b0382166107bd5760405162461bcd60e51b815260206004820152601b60248201527f45524332303a206d696e7420746f207a65726f20616464726573730000000000604482015260640161031e565b8060025f8282546107ce9190610b4e565b90915550506001600160a01b0382165f90815260208190526040812080548392906107fa908490610b4e565b90915550506040518181526001600160a01b038316905f907fddf252ad1be2c89b69c2b068fc378daa952ba7f163c4a11628f55a4df523b3ef9060200160405180910390a3816001600160a01b03167f30385c845b448a36257a6a1716e6ad2e1bc2cbe333cde1e69fe849ad6511adfe8260405161087a91815260200190565b60405180910390a25050565b6001600160a01b0382166108dc5760405162461bcd60e51b815260206004820152601d60248201527f45524332303a206275726e2066726f6d207a65726f2061646472657373000000604482015260640161031e565b6001600160a01b0382165f9081526020819052604090205481111561094e5760405162461bcd60e51b815260206004820152602260248201527f45524332303a206275726e20616d6f756e7420657863656564732062616c616e604482015261636560f01b606482015260840161031e565b6001600160a01b0382165f9081526020819052604081208054839290610975908490610b3b565b925050819055508060025f82825461098d9190610b3b565b90915550506040518181525f906001600160a01b038416907fddf252ad1be2c89b69c2b068fc378daa952ba7f163c4a11628f55a4df523b3ef9060200160405180910390a3816001600160a01b03167f696de425f79f4a40bc6d2122ca50507f0efbeabbff86a84871b7196ab8ea8df78260405161087a91815260200190565b602081525f82518060208401528060208501604085015e5f604082850101526040601f19601f83011684010191505092915050565b80356001600160a01b0381168114610a58575f5ffd5b919050565b5f5f60408385031215610a6e575f5ffd5b610a7783610a42565b946020939093013593505050565b5f5f5f60608486031215610a97575f5ffd5b610aa084610a42565b9250610aae60208501610a42565b929592945050506040919091013590565b5f60208284031215610acf575f5ffd5b5035919050565b5f60208284031215610ae6575f5ffd5b610aef82610a42565b9392505050565b5f5f60408385031215610b07575f5ffd5b610b1083610a42565b9150610b1e60208401610a42565b90509250929050565b634e487b7160e01b5f52601160045260245ffd5b818103818111156102a9576102a9610b27565b808201808211156102a9576102a9610b2756fea264697066735822122008b9f169c39f044dbb24cdd44874e3c4d30bd3814f7206b566bc0017bc02954164736f6c634300081c0033",
    "linkReferences": {}
  },
  "methodIdentifiers": {
    "allowance(address,address)": "dd62ed3e",
    "approve(address,uint256)": "095ea7b3",
    "balanceOf(address)": "70a08231",
    "burn(uint256)": "42966c68",
    "decimals()": "313ce567",
    "decreaseAllowance(address,uint256)": "a457c2d7",
    "increaseAllowance(address,uint256)": "39509351",
    "mint(address,uint256)": "40c10f19",
    "name()": "06fdde03",
    "owner()": "8da5cb5b",
    "symbol()": "95d89b41",
    "totalSupply()": "18160ddd",
    "transfer(address,uint256)": "a9059cbb",
    "transferFrom(address,address,uint256)": "23b872dd"
  },
  "id": 1
}