{
  "abi": [
    {
      "type": "constructor",
      "inputs": [
        {
          "name": "_tokenAddress",
          "type": "address",
          "internalType": "address"
        }
      ],
      "stateMutability": "nonpayable"
    },
    {
      "type": "function",
      "name": "canClaim",
      "inputs": [
        {
          "name": "claimant",
          "type": "address",
          "internalType": "address"
        }
      ],
      "outputs": [
        {
          "name": "",
          "type": "bool",
          "internalType": "bool"
        }
      ],
      "stateMutability": "view"
    },
    {
      "type": "function",
      "name": "claim",
      "inputs": [],
      "outputs": [],
      "stateMutability": "nonpayable"
    },
    {
      "type": "function",
      "name": "claimAmount",
      "inputs": [],
      "outputs": [
        {
          "name": "",
          "type": "uint256",
          "internalType": "uint256"
        }
      ],
      "stateMutability": "view"
    },
    {
      "type": "function",
      "name": "claimCount",
      "inputs": [
        {
          "name": "",
          "type": "address",
          "internalType": "address"
        }
      ],
      "outputs": [
        {
          "name": "",
          "type": "uint256",
          "internalType": "uint256"
        }
      ],
      "stateMutability": "view"
    },
    {
      "type": "function",
      "name": "cooldown",
      "inputs": [],
      "outputs": [
        {
          "name": "",
          "type": "uint256",
          "internalType": "uint256"
        }
      ],
      "stateMutability": "view"
    },
    {
      "type": "function",
      "name": "faucetBalance",
      "inputs": [],
      "outputs": [
        {
          "name": "",
          "type": "uint256",
          "internalType": "uint256"
        }
      ],
      "stateMutability": "view"
    },
    {
      "type": "function",
      "name": "fundFaucet",
      "inputs": [
        {
          "name": "amount",
          "type": "uint256",
          "internalType": "uint256"
        }
      ],
      "outputs": [],
      "stateMutability": "nonpayable"
    },
    {
      "type": "function",
      "name": "lastClaimTime",
      "inputs": [
        {
          "name": "",
          "type": "address",
          "internalType": "address"
        }
      ],
      "outputs": [
        {
          "name": "",
          "type": "uint256",
          "internalType": "uint256"
        }
      ],
      "stateMutability": "view"
    },
    {
      "type": "function",
      "name": "maxClaimsPerAddress",
      "inputs": [],
      "outputs": [
        {
          "name": "",
          "type": "uint256",
          "internalType": "uint256"
        }
      ],
      "stateMutability": "view"
    },
    {
      "type": "function",
      "name": "owner",
      "inputs": [],
      "outputs": [
        {
          "name": "",
          "type": "address",
          "internalType": "address"
        }
      ],
      "stateMutability": "view"
    },
    {
      "type": "function",
      "name": "setClaimAmount",
      "inputs": [
        {
          "name": "newAmount",
          "type": "uint256",
          "internalType": "uint256"
        }
      ],
      "outputs": [],
      "stateMutability": "nonpayable"
    },
    {
      "type": "function",
      "name": "setCooldown",
      "inputs": [
        {
          "name": "newCooldown",
          "type": "uint256",
          "internalType": "uint256"
        }
      ],
      "outputs": [],
      "stateMutability": "nonpayable"
    },
    {
      "type": "function",
      "name": "setMaxClaimsPerAddress",
      "inputs": [
        {
          "name": "newMax",
          "type": "uint256",
          "internalType": "uint256"
        }
      ],
      "outputs": [],
      "stateMutability": "nonpayable"
    },
    {
      "type": "function",
      "name": "timeUntilNextClaim",
      "inputs": [
        {
          "name": "claimant",
          "type": "address",
          "internalType": "address"
        }
      ],
      "outputs": [
        {
          "name": "",
          "type": "uint256",
          "internalType": "uint256"
        }
      ],
      "stateMutability": "view"
    },
    {
      "type": "function",
      "name": "token",
      "inputs": [],
      "outputs": [
        {
          "name": "",
          "type": "address",
          "internalType": "contract SydneyToken"
        }
      ],
      "stateMutability": "view"
    },
    {
      "type": "function",
      "name": "totalDistributed",
      "inputs": [],
      "outputs": [
        {
          "name": "",
          "type": "uint256",
          "internalType": "uint256"
        }
      ],
      "stateMutability": "view"
    },
    {
      "type": "function",
      "name": "transferOwnership",
      "inputs": [
        {
          "name": "newOwner",
          "type": "address",
          "internalType": "address"
        }
      ],
      "outputs": [],
      "stateMutability": "nonpayable"
    },
    {
      "type": "function",
      "name": "withdrawTokens",
      "inputs": [
        {
          "name": "amount",
          "type": "uint256",
          "internalType": "uint256"
        }
      ],
      "outputs": [],
      "stateMutability": "nonpayable"
    },
    {
      "type": "event",
      "name": "ClaimAmountUpdated",
      "inputs": [
        {
          "name": "oldAmount",
          "type": "uint256",
          "indexed": false,
          "internalType": "uint256"
        },
        {
          "name": "newAmount",
          "type": "uint256",
          "indexed": false,
          "internalType": "uint256"
        }
      ],
      "anonymous": false
    },
    {
      "type": "event",
      "name": "Claimed",
      "inputs": [
        {
          "name": "claimant",
          "type": "address",
          "indexed": true,
          "internalType": "address"
        },
        {
          "name": "amount",
          "type": "uint256",
          "indexed": false,
          "internalType": "uint256"
        },
        {
          "name": "timestamp",
          "type": "uint256",
          "indexed": false,
          "internalType": "uint256"
        }
      ],
      "anonymous": false
    },
    {
      "type": "event",
      "name": "CooldownUpdated",
      "inputs": [
        {
          "name": "oldCooldown",
          "type": "uint256",
          "indexed": false,
          "internalType": "uint256"
        },
        {
          "name": "newCooldown",
          "type": "uint256",
          "indexed": false,
          "internalType": "uint256"
        }
      ],
      "anonymous": false
    },
    {
      "type": "event",
      "name": "Funded",
      "inputs": [
        {
          "name": "funder",
          "type": "address",
          "indexed": true,
          "internalType": "address"
        },
        {
          "name": "amount",
          "type": "uint256",
          "indexed": false,
          "internalType": "uint256"
        }
      ],
      "anonymous": false
    },
    {
      "type": "event",
      "name": "MaxClaimsUpdated",
      "inputs": [
        {
          "name": "oldMax",
          "type": "uint256",
          "indexed": false,
          "internalType": "uint256"
        },
        {
          "name": "newMax",
          "type": "uint256",
          "indexed": false,
          "internalType": "uint256"
        }
      ],
      "anonymous": false
    },
    {
      "type": "event",
      "name": "Withdrawn",
      "inputs": [
        {
          "name": "owner",
          "type": "address",
          "indexed": true,
          "internalType": "address"
        },
        {
          "name": "amount",
          "type": "uint256",
          "indexed": false,
          "internalType": "uint256"
        }
      ],
      "anonymous": false
    }
  ],
  "bytecode": {
    "object": "0x6080604052678ac7230489e80000600155620151806002555f600555348015610026575f5ffd5b50604051610e60380380610e60833981016040819052610045916100cc565b6001600160a01b03811661009f5760405162461bcd60e51b815260206004820152601560248201527f496e76616c696420746f6b656e20616464726573730000000000000000000000604482015260640160405180910390fd5b5f80546001600160a01b039092166001600160a01b031992831617905560078054909116331790556100f9565b5f602082840312156100dc575f5ffd5b81516001600160a01b03811681146100f2575f5ffd5b9392505050565b610d5a806101065f395ff3fe608060405234801561000f575f5ffd5b5060043610610111575f3560e01c806392d82dbe1161009e578063bf3506c11161006e578063bf3506c11461021d578063efca2eed14610240578063f2fde38b14610249578063f4579ffe1461025c578063fc0c546a1461026f575f5ffd5b806392d82dbe146101c5578063ae0140b4146101d8578063b1c7ef0c146101eb578063b77cf9c6146101fe575f5ffd5b80634fc3f41a116100e45780634fc3f41a1461015657806369c12cb714610169578063787a08a614610188578063830953ab146101915780638da5cb5b1461019a575f5ffd5b80631720f5d214610115578063315a095d14610130578063333445fb146101455780634e71d92d1461014e575b5f5ffd5b61011d610281565b6040519081526020015b60405180910390f35b61014361013e366004610bed565b6102f0565b005b61011d60055481565b6101436104d0565b610143610164366004610bed565b610759565b61011d610177366004610c04565b60066020525f908152604090205481565b61011d60025481565b61011d60015481565b6007546101ad906001600160a01b031681565b6040516001600160a01b039091168152602001610127565b61011d6101d3366004610c04565b610818565b6101436101e6366004610bed565b610863565b6101436101f9366004610bed565b610971565b61011d61020c366004610c04565b60036020525f908152604090205481565b61023061022b366004610c04565b6109f8565b6040519015158152602001610127565b61011d60045481565b610143610257366004610c04565b610ae3565b61014361026a366004610bed565b610b85565b5f546101ad906001600160a01b031681565b5f80546040516370a0823160e01b81523060048201526001600160a01b03909116906370a0823190602401602060405180830381865afa1580156102c7573d5f5f3e3d5ffd5b505050506040513d601f19601f820116820180604052508101906102eb9190610c2a565b905090565b6007546001600160a01b031633146103235760405162461bcd60e51b815260040161031a90610c41565b60405180910390fd5b5f81116103425760405162461bcd60e51b815260040161031a90610c65565b5f546040516370a0823160e01b815230600482015282916001600160a01b0316906370a0823190602401602060405180830381865afa158015610387573d5f5f3e3d5ffd5b505050506040513d601f19601f820116820180604052508101906103ab9190610c2a565b10156103f95760405162461bcd60e51b815260206004820152601b60248201527f496e73756666696369656e74206661756365742062616c616e63650000000000604482015260640161031a565b5f5460075460405163a9059cbb60e01b81526001600160a01b0391821660048201526024810184905291169063a9059cbb906044016020604051808303815f875af115801561044a573d5f5f3e3d5ffd5b505050506040513d601f19601f8201168201806040525081019061046e9190610c9c565b61048a5760405162461bcd60e51b815260040161031a90610cbb565b6007546040518281526001600160a01b03909116907f7084f5476618d8e60b11ef0d7d3f06914655adb8793e28ff7f018d4c76d505d5906020015b60405180910390a250565b600254335f908152600360205260409020546104ec9190610cf8565b42101561053b5760405162461bcd60e51b815260206004820152601860248201527f436f6f6c646f776e20706572696f64206e6f74206f7665720000000000000000604482015260640161031a565b6005541561059757600554335f90815260066020526040902054106105975760405162461bcd60e51b815260206004820152601260248201527113585e0818db185a5b5cc81c995858da195960721b604482015260640161031a565b5f80546040516370a0823160e01b81523060048201526001600160a01b03909116906370a0823190602401602060405180830381865afa1580156105dd573d5f5f3e3d5ffd5b505050506040513d601f19601f820116820180604052508101906106019190610c2a565b90506001548110156106445760405162461bcd60e51b815260206004820152600c60248201526b46617563657420656d70747960a01b604482015260640161031a565b335f90815260036020908152604080832042905560069091528120805460019290610670908490610cf8565b9091555050600154600480545f90610689908490610cf8565b90915550505f5460015460405163a9059cbb60e01b815233600482015260248101919091526001600160a01b039091169063a9059cbb906044016020604051808303815f875af11580156106df573d5f5f3e3d5ffd5b505050506040513d601f19601f820116820180604052508101906107039190610c9c565b61071f5760405162461bcd60e51b815260040161031a90610cbb565b6001546040805191825242602083015233917f987d620f307ff6b94d58743cb7a7509f24071586a77759b77c2d4e29f75a2f9a91016104c5565b6007546001600160a01b031633146107835760405162461bcd60e51b815260040161031a90610c41565b5f81116107d25760405162461bcd60e51b815260206004820152601f60248201527f436f6f6c646f776e206d7573742062652067726561746572207468616e203000604482015260640161031a565b600280549082905560408051828152602081018490527f5953b565c074c2cce1866b4e69c9efc4908556bb6fca70f735907c94d940551591015b60405180910390a15050565b6002546001600160a01b0382165f90815260036020526040812054909182916108419190610cf8565b905080421061085257505f92915050565b61085c4282610d11565b9392505050565b6007546001600160a01b0316331461088d5760405162461bcd60e51b815260040161031a90610c41565b5f81116108ac5760405162461bcd60e51b815260040161031a90610c65565b5f546040516323b872dd60e01b8152336004820152306024820152604481018390526001600160a01b03909116906323b872dd906064016020604051808303815f875af11580156108ff573d5f5f3e3d5ffd5b505050506040513d601f19601f820116820180604052508101906109239190610c9c565b61093f5760405162461bcd60e51b815260040161031a90610cbb565b60405181815233907f5af8184bef8e4b45eb9f6ed7734d04da38ced226495548f46e0c8ff8d7d9a524906020016104c5565b6007546001600160a01b0316331461099b5760405162461bcd60e51b815260040161031a90610c41565b5f81116109ba5760405162461bcd60e51b815260040161031a90610c65565b600180549082905560408051828152602081018490527fc22e16deec6f587d0a1aad7275c1621e6c24431fea14dd71e8f3243e9fbc5ca3910161080c565b6002546001600160a01b0382165f908152600360205260408120549091610a1e91610cf8565b421015610a2c57505f919050565b5f600554118015610a5657506005546001600160a01b0383165f9081526006602052604090205410155b15610a6257505f919050565b6001545f546040516370a0823160e01b81523060048201526001600160a01b03909116906370a0823190602401602060405180830381865afa158015610aaa573d5f5f3e3d5ffd5b505050506040513d601f19601f82011682018060405250810190610ace9190610c2a565b1015610adb57505f919050565b506001919050565b6007546001600160a01b03163314610b0d5760405162461bcd60e51b815260040161031a90610c41565b6001600160a01b038116610b635760405162461bcd60e51b815260206004820181905260248201527f4e6577206f776e65722063616e6e6f74206265207a65726f2061646472657373604482015260640161031a565b600780546001600160a01b0319166001600160a01b0392909216919091179055565b6007546001600160a01b03163314610baf5760405162461bcd60e51b815260040161031a90610c41565b600580549082905560408051828152602081018490527f15927846597265712dfbaa8a25ab3879431cbb93fb74dd6fabba1afcb39c9bc0910161080c565b5f60208284031215610bfd575f5ffd5b5035919050565b5f60208284031215610c14575f5ffd5b81356001600160a01b038116811461085c575f5ffd5b5f60208284031215610c3a575f5ffd5b5051919050565b6020808252600a908201526927b7363c9037bbb732b960b11b604082015260600190565b6020808252601d908201527f416d6f756e74206d7573742062652067726561746572207468616e2030000000604082015260600190565b5f60208284031215610cac575f5ffd5b8151801515811461085c575f5ffd5b6020808252600f908201526e151c985b9cd9995c8819985a5b1959608a1b604082015260600190565b634e487b7160e01b5f52601160045260245ffd5b80820180821115610d0b57610d0b610ce4565b92915050565b81810381811115610d0b57610d0b610ce456fea26469706673582212204c9eea7784826acc6012d561772918b65aa4ca8a4ed307344a2a5bf94f24155d64736f6c634300081c0033",
    "linkReferences": {}
  },
  "methodIdentifiers": {
    "canClaim(address)": "bf3506c1",
    "claim()": "4e71d92d",
    "claimAmount()": "830953ab",
    "claimCount(address)": "69c12cb7",
    "cooldown()": "787a08a6",
    "faucetBalance()": "1720f5d2",
    "fundFaucet(uint256)": "ae0140b4",
    "lastClaimTime(address)": "b77cf9c6",
    "maxClaimsPerAddress()": "333445fb",
    "owner()": "8da5cb5b",
    "setClaimAmount(uint256)": "b1c7ef0c",
    "setCooldown(uint256)": "4fc3f41a",
    "setMaxClaimsPerAddress(uint256)": "f4579ffe",
    "timeUntilNextClaim(address)": "92d82dbe",
    "token()": "fc0c546a",
    "totalDistributed()": "efca2eed",
    "transferOwnership(address)": "f2fde38b",
    "withdrawTokens(uint256)": "315a095d"
  },
  "id": 17
}