{
  "abi": [
    {
      "type": "constructor",
      "inputs": [
        {
          "name": "_tokenAddress",
          "type": "address",
          "internalType": "address"
        }
      ],
      "stateMutability": "nonpayable"
    },
    {
      "type": "function",
      "name": "canClaim",
      "inputs": [
        {
          "name": "claimant",
          "type": "address",
          "internalType": "address"
        }
      ],
      "outputs": [
        {
          "name": "",
          "type": "bool",
          "internalType": "bool"
        }
      ],
      "stateMutability": "view"
    },
    {
      "type": "function",
      "name": "claim",
      "inputs": [],
      "outputs": [],
      "stateMutability": "nonpayable"
    },
    {
      "type": "function",
      "name": "claimAmount",
      "inputs": [],
      "outputs": [
        {
          "name": "",
          "type": "uint256",
          "internalType": "uint256"
        }
      ],
      "stateMutability": "view"
    },
    {
      "type": "function",
      "name": "claimCount",
      "inputs": [
        {
          "name": "",
          "type": "address",
          "internalType": "address"
        }
      ],
      "outputs": [
        {
          "name": "",
          "type": "uint256",
          "internalType": "uint256"
        }
      ],
      "stateMutability": "view"
    },
    {
      "type": "function",
      "name": "cooldown",
      "inputs": [],
      "outputs": [
        {
          "name": "",
          "type": "uint256",
          "internalType": "uint256"
        }
      ],
      "stateMutability": "view"
    },
    {
      "type": "function",
      "name": "faucetBalance",
      "inputs": [],
      "outputs": [
        {
          "name": "",
          "type": "uint256",
          "internalType": "uint256"
        }
      ],
      "stateMutability": "view"
    },
    {
      "type": "function",
      "name": "fundFaucet",
      "inputs": [
        {
          "name": "amount",
          "type": "uint256",
          "internalType": "uint256"
        }
      ],
      "outputs": [],
      "stateMutability": "nonpayable"
    },
    {
      "type": "function",
      "name": "lastClaimTime",
      "inputs": [
        {
          "name": "",
          "type": "address",
          "internalType": "address"
        }
      ],
      "outputs": [
        {
          "name": "",
          "type": "uint256",
          "internalType": "uint256"
        }
      ],
      "stateMutability": "view"
    },
    {
      "type": "function",
      "name": "maxClaimsPerAddress",
      "inputs": [],
      "outputs": [
        {
          "name": "",
          "type": "uint256",
          "internalType": "uint256"
        }
      ],
      "stateMutability": "view"
    },
    {
      "type": "function",
      "name": "owner",
      "inputs": [],
      "outputs": [
        {
          "name": "",
          "type": "address",
          "internalType": "address"
        }
      ],
      "stateMutability": "view"
    },
    {
      "type": "function",
      "name": "setClaimAmount",
      "inputs": [
        {
          "name": "newAmount",
          "type": "uint256",
          "internalType": "uint256"
        }
      ],
      "outputs": [],
      "stateMutability": "nonpayable"
    },
    {
      "type": "function",
      "name": "setCooldown",
      "inputs": [
        {
          "name": "newCooldown",
          "type": "uint256",
          "internalType": "uint256"
        }
      ],
      "outputs": [],
      "stateMutability": "nonpayable"
    },
    {
      "type": "function",
      "name": "setMaxClaimsPerAddress",
      "inputs": [
        {
          "name": "newMax",
          "type": "uint256",
          "internalType": "uint256"
        }
      ],
      "outputs": [],
      "stateMutability": "nonpayable"
    },
    {
      "type": "function",
      "name": "timeUntilNextClaim",
      "inputs": [
        {
          "name": "claimant",
          "type": "address",
          "internalType": "address"
        }
      ],
      "outputs": [
        {
          "name": "",
          "type": "uint256",
          "internalType": "uint256"
        }
      ],
      "stateMutability": "view"
    },
    {
      "type": "function",
      "name": "token",
      "inputs": [],
      "outputs": [
        {
          "name": "",
          "type": "address",
          "internalType": "contract SydneyToken"
        }
      ],
      "stateMutability": "view"
    },
    {
      "type": "function",
      "name": "totalDistributed",
      "inputs": [],
      "outputs": [
        {
          "name": "",
          "type": "uint256",
          "internalType": "uint256"
        }
      ],
      "stateMutability": "view"
    },
    {
      "type": "function",
      "name": "transferOwnership",
      "inputs": [
        {
          "name": "newOwner",
          "type": "address",
          "internalType": "address"
        }
      ],
      "outputs": [],
      "stateMutability": "nonpayable"
    },
    {
      "type": "function",
      "name": "withdrawTokens",
      "inputs": [
        {
          "name": "amount",
          "type": "uint256",
          "internalType": "uint256"
        }
      ],
      "outputs": [],
      "stateMutability": "nonpayable"
    },
    {
      "type": "event",
      "name": "ClaimAmountUpdated",
      "inputs": [
        {
          "name": "oldAmount",
          "type": "uint256",
          "indexed": false,
          "internalType": "uint256"
        },
        {
          "name": "newAmount",
          "type": "uint256",
          "indexed": false,
          "internalType": "uint256"
        }
      ],
      "anonymous": false
    },
    {
      "type": "event",
      "name": "Claimed",
      "inputs": [
        {
          "name": "claimant",
          "type": "address",
          "indexed": true,
          "internalType": "address"
        },
        {
          "name": "amount",
          "type": "uint256",
          "indexed": false,
          "internalType": "uint256"
        },
        {
          "name": "timestamp",
          "type": "uint256",
          "indexed": false,
          "internalType": "uint256"
        }
      ],
      "anonymous": false
    },
    {
      "type": "event",
      "name": "CooldownUpdated",
      "inputs": [
        {
          "name": "oldCooldown",
          "type": "uint256",
          "indexed": false,
          "internalType": "uint256"
        },
        {
          "name": "newCooldown",
          "type": "uint256",
          "indexed": false,
          "internalType": "uint256"
        }
      ],
      "anonymous": false
    },
    {
      "type": "event",
      "name": "Funded",
      "inputs": [
        {
          "name": "funder",
          "type": "address",
          "indexed": true,
          "internalType": "address"
        },
        {
          "name": "amount",
          "type": "uint256",
          "indexed": false,
          "internalType": "uint256"
        }
      ],
      "anonymous": false
    },
    {
      "type": "event",
      "name": "MaxClaimsUpdated",
      "inputs": [
        {
          "name": "oldMax",
          "type": "uint256",
          "indexed": false,
          "internalType": "uint256"
        },
        {
          "name": "newMax",
          "type": "uint256",
          "indexed": false,
          "internalType": "uint256"
        }
      ],
      "anonymous": false
    },
    {
      "type": "event",
      "name": "Withdrawn",
      "inputs": [
        {
          "name": "owner",
          "type": "address",
          "indexed": true,
          "internalType": "address"
        },
        {
          "name": "amount",
          "type": "uint256",
          "indexed": false,
          "internalType": "uint256"
        }
      ],
      "anonymous": false
    },
    {
      "type": "error",
      "name": "CoolDownPeriodNotOver",
      "inputs": []
    },
    {
      "type": "error",
      "name": "InsufficientBalance",
      "inputs": []
    },
    {
      "type": "error",
      "name": "InsufficientFaucetBalance",
      "inputs": []
    },
    {
      "type": "error",
      "name": "InvalidAmount",
      "inputs": []
    },
    {
      "type": "error",
      "name": "MaxClaimsReached",
      "inputs": []
    },
    {
      "type": "error",
      "name": "OnlyOwner",
      "inputs": []
    },
    {
      "type": "error",
      "name": "ZeroAddress",
      "inputs": []
    }
  ],
  "bytecode": {
    "object": "0x6080604052678ac7230489e80000600155620151806002555f600555348015610026575f5ffd5b5060405161196a38038061196a83398181016040528101906100489190610190565b5f73ffffffffffffffffffffffffffffffffffffffff168173ffffffffffffffffffffffffffffffffffffffff16036100ad576040517fd92e233d00000000000000000000000000000000000000000000000000000000815260040160405180910390fd5b805f5f6101000a81548173ffffffffffffffffffffffffffffffffffffffff021916908373ffffffffffffffffffffffffffffffffffffffff1602179055503360075f6101000a81548173ffffffffffffffffffffffffffffffffffffffff021916908373ffffffffffffffffffffffffffffffffffffffff160217905550506101bb565b5f5ffd5b5f73ffffffffffffffffffffffffffffffffffffffff82169050919050565b5f61015f82610136565b9050919050565b61016f81610155565b8114610179575f5ffd5b50565b5f8151905061018a81610166565b92915050565b5f602082840312156101a5576101a4610132565b5b5f6101b28482850161017c565b91505092915050565b6117a2806101c85f395ff3fe608060405234801561000f575f5ffd5b5060043610610114575f3560e01c806392d82dbe116100a0578063bf3506c11161006f578063bf3506c1146102b8578063efca2eed146102e8578063f2fde38b14610306578063f4579ffe14610322578063fc0c546a1461033e57610114565b806392d82dbe14610220578063ae0140b414610250578063b1c7ef0c1461026c578063b77cf9c61461028857610114565b80634fc3f41a116100e75780634fc3f41a1461017a57806369c12cb714610196578063787a08a6146101c6578063830953ab146101e45780638da5cb5b1461020257610114565b80631720f5d214610118578063315a095d14610136578063333445fb146101525780634e71d92d14610170575b5f5ffd5b61012061035c565b60405161012d91906113fc565b60405180910390f35b610150600480360381019061014b9190611443565b6103fa565b005b61015a6106f3565b60405161016791906113fc565b60405180910390f35b6101786106f9565b005b610194600480360381019061018f9190611443565b610af8565b005b6101b060048036038101906101ab91906114c8565b610c01565b6040516101bd91906113fc565b60405180910390f35b6101ce610c16565b6040516101db91906113fc565b60405180910390f35b6101ec610c1c565b6040516101f991906113fc565b60405180910390f35b61020a610c22565b6040516102179190611502565b60405180910390f35b61023a600480360381019061023591906114c8565b610c47565b60405161024791906113fc565b60405180910390f35b61026a60048036038101906102659190611443565b610d07565b005b61028660048036038101906102819190611443565b610eea565b005b6102a2600480360381019061029d91906114c8565b610ff3565b6040516102af91906113fc565b60405180910390f35b6102d260048036038101906102cd91906114c8565b611008565b6040516102df9190611535565b60405180910390f35b6102f06111bc565b6040516102fd91906113fc565b60405180910390f35b610320600480360381019061031b91906114c8565b6111c2565b005b61033c60048036038101906103379190611443565b6112f0565b005b6103466113c0565b60405161035391906115a9565b60405180910390f35b5f5f5f9054906101000a900473ffffffffffffffffffffffffffffffffffffffff1673ffffffffffffffffffffffffffffffffffffffff166370a08231306040518263ffffffff1660e01b81526004016103b69190611502565b602060405180830381865afa1580156103d1573d5f5f3e3d5ffd5b505050506040513d601f19601f820116820180604052508101906103f591906115d6565b905090565b60075f9054906101000a900473ffffffffffffffffffffffffffffffffffffffff1673ffffffffffffffffffffffffffffffffffffffff163373ffffffffffffffffffffffffffffffffffffffff1614610480576040517f5fc483c500000000000000000000000000000000000000000000000000000000815260040160405180910390fd5b5f81036104b9576040517f2c5211c600000000000000000000000000000000000000000000000000000000815260040160405180910390fd5b5f5f5f9054906101000a900473ffffffffffffffffffffffffffffffffffffffff1673ffffffffffffffffffffffffffffffffffffffff166370a08231306040518263ffffffff1660e01b81526004016105139190611502565b602060405180830381865afa15801561052e573d5f5f3e3d5ffd5b505050506040513d601f19601f8201168201806040525081019061055291906115d6565b90508181101561058e576040517ff4d678b800000000000000000000000000000000000000000000000000000000815260040160405180910390fd5b5f5f9054906101000a900473ffffffffffffffffffffffffffffffffffffffff1673ffffffffffffffffffffffffffffffffffffffff1663a9059cbb60075f9054906101000a900473ffffffffffffffffffffffffffffffffffffffff16846040518363ffffffff1660e01b815260040161060a929190611601565b6020604051808303815f875af1158015610626573d5f5f3e3d5ffd5b505050506040513d601f19601f8201168201806040525081019061064a9190611652565b610680576040517f25bab55300000000000000000000000000000000000000000000000000000000815260040160405180910390fd5b60075f9054906101000a900473ffffffffffffffffffffffffffffffffffffffff1673ffffffffffffffffffffffffffffffffffffffff167f7084f5476618d8e60b11ef0d7d3f06914655adb8793e28ff7f018d4c76d505d5836040516106e791906113fc565b60405180910390a25050565b60055481565b5f60035f3373ffffffffffffffffffffffffffffffffffffffff1673ffffffffffffffffffffffffffffffffffffffff1681526020019081526020015f20541415801561078f575060025460035f3373ffffffffffffffffffffffffffffffffffffffff1673ffffffffffffffffffffffffffffffffffffffff1681526020019081526020015f205461078c91906116aa565b42105b156107c6576040517fee63c7a100000000000000000000000000000000000000000000000000000000815260040160405180910390fd5b5f60055411156108495760055460065f3373ffffffffffffffffffffffffffffffffffffffff1673ffffffffffffffffffffffffffffffffffffffff1681526020019081526020015f205410610848576040517fc6efb6e100000000000000000000000000000000000000000000000000000000815260040160405180910390fd5b5b5f5f5f9054906101000a900473ffffffffffffffffffffffffffffffffffffffff1673ffffffffffffffffffffffffffffffffffffffff166370a08231306040518263ffffffff1660e01b81526004016108a39190611502565b602060405180830381865afa1580156108be573d5f5f3e3d5ffd5b505050506040513d601f19601f820116820180604052508101906108e291906115d6565b9050600154811015610920576040517f25bab55300000000000000000000000000000000000000000000000000000000815260040160405180910390fd5b4260035f3373ffffffffffffffffffffffffffffffffffffffff1673ffffffffffffffffffffffffffffffffffffffff1681526020019081526020015f2081905550600160065f3373ffffffffffffffffffffffffffffffffffffffff1673ffffffffffffffffffffffffffffffffffffffff1681526020019081526020015f205f8282546109af91906116aa565b9250508190555060015460045f8282546109c991906116aa565b925050819055505f5f9054906101000a900473ffffffffffffffffffffffffffffffffffffffff1673ffffffffffffffffffffffffffffffffffffffff1663a9059cbb336001546040518363ffffffff1660e01b8152600401610a2d929190611601565b6020604051808303815f875af1158015610a49573d5f5f3e3d5ffd5b505050506040513d601f19601f82011682018060405250810190610a6d9190611652565b610aa3576040517f25bab55300000000000000000000000000000000000000000000000000000000815260040160405180910390fd5b3373ffffffffffffffffffffffffffffffffffffffff167f987d620f307ff6b94d58743cb7a7509f24071586a77759b77c2d4e29f75a2f9a60015442604051610aed9291906116dd565b60405180910390a250565b60075f9054906101000a900473ffffffffffffffffffffffffffffffffffffffff1673ffffffffffffffffffffffffffffffffffffffff163373ffffffffffffffffffffffffffffffffffffffff1614610b7e576040517f5fc483c500000000000000000000000000000000000000000000000000000000815260040160405180910390fd5b5f8103610bb7576040517f2c5211c600000000000000000000000000000000000000000000000000000000815260040160405180910390fd5b5f6002549050816002819055507f5953b565c074c2cce1866b4e69c9efc4908556bb6fca70f735907c94d94055158183604051610bf59291906116dd565b60405180910390a15050565b6006602052805f5260405f205f915090505481565b60025481565b60015481565b60075f9054906101000a900473ffffffffffffffffffffffffffffffffffffffff1681565b5f5f60035f8473ffffffffffffffffffffffffffffffffffffffff1673ffffffffffffffffffffffffffffffffffffffff1681526020019081526020015f205403610c94575f9050610d02565b5f60025460035f8573ffffffffffffffffffffffffffffffffffffffff1673ffffffffffffffffffffffffffffffffffffffff1681526020019081526020015f2054610ce091906116aa565b9050804210610cf2575f915050610d02565b4281610cfe9190611704565b9150505b919050565b60075f9054906101000a900473ffffffffffffffffffffffffffffffffffffffff1673ffffffffffffffffffffffffffffffffffffffff163373ffffffffffffffffffffffffffffffffffffffff1614610d8d576040517f5fc483c500000000000000000000000000000000000000000000000000000000815260040160405180910390fd5b5f8103610dc6576040517f2c5211c600000000000000000000000000000000000000000000000000000000815260040160405180910390fd5b5f5f9054906101000a900473ffffffffffffffffffffffffffffffffffffffff1673ffffffffffffffffffffffffffffffffffffffff166323b872dd3330846040518463ffffffff1660e01b8152600401610e2393929190611737565b6020604051808303815f875af1158015610e3f573d5f5f3e3d5ffd5b505050506040513d601f19601f82011682018060405250810190610e639190611652565b610e99576040517f25bab55300000000000000000000000000000000000000000000000000000000815260040160405180910390fd5b3373ffffffffffffffffffffffffffffffffffffffff167f5af8184bef8e4b45eb9f6ed7734d04da38ced226495548f46e0c8ff8d7d9a52482604051610edf91906113fc565b60405180910390a250565b60075f9054906101000a900473ffffffffffffffffffffffffffffffffffffffff1673ffffffffffffffffffffffffffffffffffffffff163373ffffffffffffffffffffffffffffffffffffffff1614610f70576040517f5fc483c500000000000000000000000000000000000000000000000000000000815260040160405180910390fd5b5f8103610fa9576040517f2c5211c600000000000000000000000000000000000000000000000000000000815260040160405180910390fd5b5f6001549050816001819055507fc22e16deec6f587d0a1aad7275c1621e6c24431fea14dd71e8f3243e9fbc5ca38183604051610fe79291906116dd565b60405180910390a15050565b6003602052805f5260405f205f915090505481565b5f5f60035f8473ffffffffffffffffffffffffffffffffffffffff1673ffffffffffffffffffffffffffffffffffffffff1681526020019081526020015f20541415801561109f575060025460035f8473ffffffffffffffffffffffffffffffffffffffff1673ffffffffffffffffffffffffffffffffffffffff1681526020019081526020015f205461109c91906116aa565b42105b156110ac575f90506111b7565b5f6005541180156110fc575060055460065f8473ffffffffffffffffffffffffffffffffffffffff1673ffffffffffffffffffffffffffffffffffffffff1681526020019081526020015f205410155b15611109575f90506111b7565b6001545f5f9054906101000a900473ffffffffffffffffffffffffffffffffffffffff1673ffffffffffffffffffffffffffffffffffffffff166370a08231306040518263ffffffff1660e01b81526004016111659190611502565b602060405180830381865afa158015611180573d5f5f3e3d5ffd5b505050506040513d601f19601f820116820180604052508101906111a491906115d6565b10156111b2575f90506111b7565b600190505b919050565b60045481565b60075f9054906101000a900473ffffffffffffffffffffffffffffffffffffffff1673ffffffffffffffffffffffffffffffffffffffff163373ffffffffffffffffffffffffffffffffffffffff1614611248576040517f5fc483c500000000000000000000000000000000000000000000000000000000815260040160405180910390fd5b5f73ffffffffffffffffffffffffffffffffffffffff168173ffffffffffffffffffffffffffffffffffffffff16036112ad576040517fd92e233d00000000000000000000000000000000000000000000000000000000815260040160405180910390fd5b8060075f6101000a81548173ffffffffffffffffffffffffffffffffffffffff021916908373ffffffffffffffffffffffffffffffffffffffff16021790555050565b60075f9054906101000a900473ffffffffffffffffffffffffffffffffffffffff1673ffffffffffffffffffffffffffffffffffffffff163373ffffffffffffffffffffffffffffffffffffffff1614611376576040517f5fc483c500000000000000000000000000000000000000000000000000000000815260040160405180910390fd5b5f6005549050816005819055507f15927846597265712dfbaa8a25ab3879431cbb93fb74dd6fabba1afcb39c9bc081836040516113b49291906116dd565b60405180910390a15050565b5f5f9054906101000a900473ffffffffffffffffffffffffffffffffffffffff1681565b5f819050919050565b6113f6816113e4565b82525050565b5f60208201905061140f5f8301846113ed565b92915050565b5f5ffd5b611422816113e4565b811461142c575f5ffd5b50565b5f8135905061143d81611419565b92915050565b5f6020828403121561145857611457611415565b5b5f6114658482850161142f565b91505092915050565b5f73ffffffffffffffffffffffffffffffffffffffff82169050919050565b5f6114978261146e565b9050919050565b6114a78161148d565b81146114b1575f5ffd5b50565b5f813590506114c28161149e565b92915050565b5f602082840312156114dd576114dc611415565b5b5f6114ea848285016114b4565b91505092915050565b6114fc8161148d565b82525050565b5f6020820190506115155f8301846114f3565b92915050565b5f8115159050919050565b61152f8161151b565b82525050565b5f6020820190506115485f830184611526565b92915050565b5f819050919050565b5f61157161156c6115678461146e565b61154e565b61146e565b9050919050565b5f61158282611557565b9050919050565b5f61159382611578565b9050919050565b6115a381611589565b82525050565b5f6020820190506115bc5f83018461159a565b92915050565b5f815190506115d081611419565b92915050565b5f602082840312156115eb576115ea611415565b5b5f6115f8848285016115c2565b91505092915050565b5f6040820190506116145f8301856114f3565b61162160208301846113ed565b9392505050565b6116318161151b565b811461163b575f5ffd5b50565b5f8151905061164c81611628565b92915050565b5f6020828403121561166757611666611415565b5b5f6116748482850161163e565b91505092915050565b7f4e487b71000000000000000000000000000000000000000000000000000000005f52601160045260245ffd5b5f6116b4826113e4565b91506116bf836113e4565b92508282019050808211156116d7576116d661167d565b5b92915050565b5f6040820190506116f05f8301856113ed565b6116fd60208301846113ed565b9392505050565b5f61170e826113e4565b9150611719836113e4565b92508282039050818111156117315761173061167d565b5b92915050565b5f60608201905061174a5f8301866114f3565b61175760208301856114f3565b61176460408301846113ed565b94935050505056fea2646970667358221220c32a3529a2c7826586e285b83b68787a621814d3b14f16845f5a25eb08d1b99864736f6c63430008210033",
    "linkReferences": {}
  },
  "methodIdentifiers": {
    "canClaim(address)": "bf3506c1",
    "claim()": "4e71d92d",
    "claimAmount()": "830953ab",
    "claimCount(address)": "69c12cb7",
    "cooldown()": "787a08a6",
    "faucetBalance()": "1720f5d2",
    "fundFaucet(uint256)": "ae0140b4",
    "lastClaimTime(address)": "b77cf9c6",
    "maxClaimsPerAddress()": "333445fb",
    "owner()": "8da5cb5b",
    "setClaimAmount(uint256)": "b1c7ef0c",
    "setCooldown(uint256)": "4fc3f41a",
    "setMaxClaimsPerAddress(uint256)": "f4579ffe",
    "timeUntilNextClaim(address)": "92d82dbe",
    "token()": "fc0c546a",
    "totalDistributed()": "efca2eed",
    "transferOwnership(address)": "f2fde38b",
    "withdrawTokens(uint256)": "315a095d"
  },
  "id": 20
}